S0120000536D6172745F486F6D652E7372656323
S11300000C9432000C944F000C944F000C944F004D
S11300100C944F000C944F000C944F000C944F0020
S11300200C944F000C944F000C944F000C944F0010
S11300300C944F000C944F000C944F000C944F0000
S11300400C944F000C944F000C944F000C944F00F0
S11300500C944F0039014801570166017501830171
S113006091019F0111241FBECFE5D8E0DEBFCDBFB3
S113007010E0A0E6B0E0E8EFFBE002C005900D92CE
S1130080AA38B107D9F720E0AAE8B0E001C01D9270
S1130090AC38B207E1F70E94A0000C94FA050C9466
S11300A0000040E063E081E390E00E940E0141E043
S11300B063E087E390E00E940E0180E890E00E94F4
S11300C0B70108958DE690E00E94CF00089541E0C5
S11300D062E08AE390E00E940E010895482F62E0F6
S11300E08BE390E00E942C01089541E065E081E3F8
S11300F090E00E940E0186E790E00E94B70183EC35
S113010099E097BD86BD089580E991E09BBD8ABDC5
S11301102FEF8DE399E4215080409040E1F700C037
S1130120000008958FEA90E09BBD8ABD2FEF8DE318
S113013099E4215080409040E1F700C00000089508
S1130140CF93DF931F92CDB7DEB70E9475000E9454
S113015084000E94670080E690E00E94E1020E9411
S113016051000E9462001982CE0101960E94CF03C1
S11301708981813311F40E9492008981823311F4C0
S11301800E9484008981833321F481E00E946E00FF
S1130190EBCF843349F780E00E946E00E5CFFC0189
S11301A017B816B880B78F7180BF8081811132C0B3
S11301B097B18181892B87B98681813021F038F00C
S11301C0823059F011C086B18F7D86B90DC086B1D9
S11301D0806286B980B780BF07C086B1806286B965
S11301E090B78085892B80BF8281882319F0813064
S11301F029F008C087B1806287B904C097B18381B0
S1130200892B87B996B18581892B86B996B1878167
S1130210892B86B986B1806886B90895442319F07C
S1130220413071F00895FC01408121E030E002C0CA
S1130230220F331F6A95E2F7209524232083089523
S1130240FC01408121E030E002C0220F331F6A9597
S1130250E2F7242B208308950F931F93062F10E0B9
S11302600830110508F078C0F801E65DFF4F0C94E2
S1130270E505442341F0413009F06EC0FC012081C2
S11302802160208369C0FC0120812E7F208364C00B
S1130290442341F0413009F05FC0FC012081226019
S11302A020835AC0FC0120812D7F208355C0442324
S11302B041F0413009F050C0FC01208124602083CA
S11302C04BC0FC0120812B7F208346C0442341F096
S11302D0413009F041C0FC012081286020833CC0EA
S11302E0FC012081277F208337C0442339F041302B
S11302F099F5FC012081206120832EC0FC0120811E
S11303002F7E208329C0442339F0413029F5FC0194
S113031020812062208320C0FC0120812F7D208346
S11303201BC0442339F04130B9F4FC01208120641E
S1130330208312C0FC0120812F7B20830DC0442325
S113034039F0413049F4FC0120812068208304C045
S1130350FC0120812F7720831F910F91089519BCF0
S113036018BC1FBC1EBC89B7837C89BF0895CF927B
S1130370DF92EF92FF920F931F93CF93DF93FC01D1
S11303808081813009F43FC020F0823009F4D7C065
S11303900FC113BE1CBE12BE93B78181892B83BFCC
S11303A093B78381892B83BF93B78281892B83BFC2
S11303B08381803219F0803381F0FAC020E030E08C
S11303C036813695279536952795ABE7B4E10E949B
S11303D0EB05969587958CBFEBC08681978140E0AD
S11303E0489F9001499F300D381B11243C59369584
S11303F0279536952795ABE7B4E10E94EB059695D2
S113040087958CBFD5C0EF010E94AF0189818034EC
S113041079F08834C9F48FB58E7F8FBD8FB5826033
S11304208FBD8EB588608EBD8EB580618EBD0CC0CB
S11304308FB581608FBD8FB582608FBD8EB5877F8C
S11304408EBD8EB580618EBD088519856C817D81D8
S113045080E090E00E94EA049B01AC0160E070E05F
S11304608AE794E40E9449046B017C01B80180E0AE
S113047090E00E94EA04A70196010E9478059B017E
S1130480AC0160E074E284E79BE40E9449040E94AA
S1130490BB046150710970938B0060938A0077BD2F
S11304A066BD8B81803219F0803309F143C08FB56A
S11304B08F7B8FBD8FB580688FBD4E815F818091AA
S11304C08A0090918B00489F9001499F300D589F5E
S11304D0300D11243695279536952795ABE7B4E171
S11304E00E94EB05969587959BBD8ABD23C08FB569
S11304F080648FBD8FB580688FBD2E813F8184E677
S113050090E0821B930B40918A0050918B00849F52
S11305109001859F300D949F300D112436952795B9
S113052036952795ABE7B4E10E94EB059695879540
S11305309BBD8ABD9EB58A81892B8EBD39C015BCF1
S113054013BC14BC95B58181892B85BD95B5838178
S1130550892B85BD95B58281892B85BD83818032A8
S113056019F0803381F024C020E030E036813695E4
S1130570279536952795ABE7B4E10E94EB05969550
S1130580879583BD15C08681978140E0489F90017F
S1130590499F300D381B11243C59369527953695C3
S11305A02795ABE7B4E10E94EB059695879583BD4B
S11305B0DF91CF911F910F91FF90EF90DF90CF903B
S11305C00895CF93DF93FC0180818111D2C01BB8C1
S11305D01AB810BC2BB19281892F90E0880F991F13
S11305E0822B8BB92AB1938530E2939FC0011124E9
S11305F0822B8AB98085833019F48AB184608AB9E0
S113060080B5806880BD20B5918130E4939FC0019E
S11306101124822B80BD20B5928530E1939FC001C7
S11306201124822B80BD20B59185892F90E0880FFD
S1130630991F880F991F880F991F822B80BD20B5A1
S11306409085892F90E0880F991F822B80BD2AB155
S11306509381892F90E0880F991F880F991F880F25
S1130660991F822B8AB98181813021F490B58485C8
S1130670892B80BDEF0180B58F7780BD828188236F
S113068019F08130E1F175C06481758186819781AB
S11306900E94EA0420E030E040E851E40E9478053A
S11306A09B01AC0160E074E284E79BE40E9449048E
S11306B020E030E040E85FE30E94DC030E94BB04DA
S11306C070BD6C817D818E819F810E94EA0420E04F
S11306D030E040E851E40E9478059B01AC0160E001
S11306E074E284E79BE40E94490420E030E040E89F
S11306F05FE30E94DC030E94BB0469B93AC06481D1
S11307007581868197810E94EA0420E030E040E010
S113071051E40E9478059B01AC0160E074E284E737
S11307209BE40E94490420E030E040E85FE30E943B
S1130730DC030E94BB0470BD6C817D818E819F812E
S11307400E94EA0420E030E040E051E40E94780591
S11307509B01AC0160E074E284E79BE40E944904DD
S113076020E030E040E85FE30E94DC030E94BB0429
S113077069B9DF91CF910895813019F0823029F061
S113078008C05D9908C080E008955F9906C080E0C4
S1130790089580E0089581E0089582E00895CF935C
S11307A0DF93EC0182E00E94BC038230D9F78CB164
S11307B08883DF91CF9108955058BB27AA270E94C0
S11307C0F4030C943E050E94300538F00E9437056E
S11307D020F039F49F3F19F426F40C942D050EF4FF
S11307E0E095E7FB0C942705E92F0E944F0558F389
S11307F0BA17620773078407950720F079F4A6F502
S11308000C9471050EF4E0950B2EBA2FA02D0B015C
S1130810B90190010C01CA01A0011124FF27591B41
S113082099F0593F50F4503E68F11A16F040A22F47
S1130830232F342F4427585FF3CF469537952795B8
S1130840A795F0405395C9F77EF41F16BA0B620BB7
S1130850730B840BBAF09150A1F0FF0FBB1F661FFE
S1130860771F881FC2F70EC0BA0F621F731F841F41
S113087048F4879577956795B795F7959E3F08F067
S1130880B0CF9395880F08F09927EE0F9795879529
S113089008950E945D040C943E050E94370558F0AB
S11308A00E94300540F029F45F3F29F00C9427059D
S11308B051110C9472050C942D050E944F0568F398
S11308C09923B1F3552391F3951B550BBB27AA2705
S11308D062177307840738F09F5F5F4F220F331F3F
S11308E0441FAA1FA9F335D00E2E3AF0E0E832D007
S11308F091505040E695001CCAF72BD0FE2F29D00A
S1130900660F771F881FBB1F261737074807AB07DB
S1130910B0E809F0BB0B802DBF01FF2793585F4F50
S11309203AF09E3F510578F00C9427050C9472051B
S11309305F3FE4F3983ED4F3869577956795B79532
S1130940F7959F5FC9F7880F911D9695879597F93D
S11309500895E1E0660F771F881FBB1F62177307B6
S11309608407BA0720F0621B730B840BBA0BEE1FCB
S113097088F7E09508950E94570588F09F5798F0EE
S1130980B92F9927B751B0F0E1F0660F771F881F90
S1130990991F1AF0BA95C9F714C0B13091F00E94AA
S11309A07105B1E008950C947105672F782F88279D
S11309B0B85F39F0B93FCCF3869577956795B395D1
S11309C0D9F73EF490958095709561957F4F8F4F40
S11309D09F4F0895E89409C097FB3EF49095809545
S11309E0709561957F4F8F4F9F4F9923A9F0F92FF1
S11309F096E9BB279395F695879577956795B7956F
S1130A00F111F8CFFAF4BB0F11F460FF1BC06F5F54
S1130A107F4F8F4F9F4F16C0882311F096E911C066
S1130A20772321F09EE8872F762F05C0662371F087
S1130A3096E8862F70E060E02AF09A95660F771F9B
S1130A40881FDAF7880F9695879597F9089597F98F
S1130A509F6780E870E060E008959FEF80EC089560
S1130A6000240A9416161706180609060895002489
S1130A700A9412161306140605060895092E039403
S1130A80000C11F4882352F0BB0F40F4BF2B11F477
S1130A9060FF04C06F5F7F4F8F4F9F4F089557FDD6
S1130AA09058440F551F59F05F3F71F04795880FD8
S1130AB097FB991F61F09F3F79F08795089512166F
S1130AC013061406551FF2CF4695F1DF08C016161B
S1130AD017061806991FF1CF8695710561050894CC
S1130AE00895E894BB2766277727CB0197F90895E3
S1130AF00E948B050C943E050E94300538F00E943C
S1130B00370520F0952311F00C9427050C942D053E
S1130B1011240C9472050E944F0570F3959FC1F344
S1130B20950F50E0551F629FF001729FBB27F00D97
S1130B30B11D639FAA27F00DB11DAA1F649F6627EC
S1130B40B00DA11D661F829F2227B00DA11D621F3B
S1130B50739FB00DA11D621F839FA00D611D221FF5
S1130B60749F3327A00D611D231F849F600D211DD9
S1130B70822F762F6A2F11249F5750409AF0F1F05C
S1130B8088234AF0EE0FFF1FBB1F661F771F881FC5
S1130B9091505040A9F79E3F510580F00C942705D1
S1130BA00C9472055F3FE4F3983ED4F386957795F1
S1130BB06795B795F795E7959F5FC1F7FE2B880F6B
S1130BC0911D9695879597F90895EE0FFF1F05904F
S1130BD0F491E02D0994A29FB001B39FC001A39F9B
S1130BE0700D811D1124911DB29F700D811D112462
S10B0BF0911D0895F894FFCF54
S1130BF800000002802500000300000001004001FD
S1130C080001000007000148032001005000000112
S10D0C180048033001000200400010
S9030000FC
