S01F0000536D6172745F486F6D655F62795F41544D4547413332412E7372656328
S11300000C9432000C944F000C944F000C944F004D
S11300100C944F000C944F000C944F000C944F0020
S11300200C944F000C944F000C944F000C944F0010
S11300300C944F000C944F000C944F000C944F0000
S11300400C944F000C944F000C944F000C944F00F0
S11300500C944F007C008B009A00A900B800C600E5
S1130060D400E20011241FBECFE5D8E0DEBFCDBF2F
S113007010E0A0E6B0E0E6E8F6E002C005900D92DC
S1130080A036B107D9F720E0A0E6B0E001C01D9288
S1130090A036B207E1F70E94E9020C9441030C94E4
S11300A00000442319F0413071F00895FC014081AF
S11300B021E030E002C0220F331F6A95E2F7209559
S11300C0242320830895FC01408121E030E002C014
S11300D0220F331F6A95E2F7242B208308950F9390
S11300E01F93062F10E00830110508F078C0F801BE
S11300F0E65DFF4F0C940603442341F0413009F0C0
S11301006EC0FC0120812160208369C0FC01208134
S11301102E7F208364C0442341F0413009F05FC046
S1130120FC012081226020835AC0FC0120812D7FA4
S1130130208355C0442341F0413009F050C0FC01F4
S11301402081246020834BC0FC0120812B7F2083ED
S113015046C0442341F0413009F041C0FC012081F4
S1130160286020833CC0FC012081277F208337C086
S1130170442339F0413099F5FC012081206120832A
S11301802EC0FC0120812F7E208329C0442339F016
S1130190413029F5FC0120812062208320C0FC012C
S11301A020812F7D20831BC0442339F04130B9F4D2
S11301B0FC0120812064208312C0FC0120812F7B5C
S11301C020830DC0442339F0413049F4FC012081DF
S11301D02068208304C0FC0120812F7720831F9195
S11301E00F91089580EF81BB82BB80B3807F80BB79
S11301F0089580EF82BB839B37C080E882BB8FE188
S11302009EE40197F1F700C00000839B04C083992A
S1130210FECF81E001C080E190E492BBEFE1FEE417
S11302203197F1F700C00000839B03C08399FECF90
S113023084E090E292BBEFE1FEE43197F1F700C075
S11302400000839B03C08399FECF87E090E192BBBB
S1130250EFE1FEE43197F1F700C00000839B05C095
S11302608399FECF8AE201C080E1829B34C090E88A
S113027092BBEFE1FEE43197F1F700C00000829BEE
S113028003C08299FECF82E090E492BBEFE1FEE4EA
S11302903197F1F700C00000829B03C08299FECF22
S11302A088E090E292BBEFE1FEE43197F1F700C001
S11302B00000829B03C08299FECF85E090E192BB4F
S11302C0EFE1FEE43197F1F700C00000829B03C028
S11302D08299FECF80E0819B34C090E892BBEFE12D
S11302E0FEE43197F1F700C00000819B03C08199BF
S11302F0FECF83E090E492BBEFE1FEE43197F1F7A7
S113030000C00000819B03C08199FECF86E090E28B
S113031092BBEFE1FEE43197F1F700C00000819B4E
S113032003C08199FECF89E090E192BBEFE1FEE446
S11303303197F1F700C00000819B03C08199FECF83
S113034083E2809B34C090E892BBEFE1FEE43197F6
S1130350F1F700C00000809B03C08099FECF81E4C8
S113036090E492BBEFE1FEE43197F1F700C00000A6
S1130370809B03C08099FECF82E490E292BBEFE1C0
S1130380FEE43197F1F700C00000809B03C0809920
S1130390FECF83E490E192BBEFE1FEE43197F1F705
S11303A000C00000809B03C08099FECF84E40895C0
S11303B0CF93C82F40E061E088E390E00E946F0093
S11303C040E062E088E390E00E946F0041E063E077
S11303D088E390E00E946F008FE39FE10197F1F7BB
S11303E000C000008BB38F708BBB8BB39C2F907FAE
S11303F0892B8BBB8FE39FE10197F1F700C00000CD
S113040040E063E088E390E00E946F008FE39FE1A7
S11304100197F1F700C0000041E063E088E390E059
S11304200E946F008FE39FE10197F1F700C0000085
S11304308BB38F708BBB8BB3C295C07FC82BCBBBE8
S11304408FE39FE10197F1F700C0000040E063E013
S113045088E390E00E946F008FE39FE10197F1F73A
S113046000C00000CF910895CF93C82F41E061E010
S113047088E390E00E946F0040E062E088E390E04F
S11304800E946F0041E063E088E390E00E946F0007
S11304908FE39FE10197F1F700C000008BB38F70E9
S11304A08BBB8BB39C2F907F892B8BBB8FE39FE1FE
S11304B00197F1F700C0000040E063E088E390E0BA
S11304C00E946F008FE39FE10197F1F700C00000E5
S11304D041E063E088E390E00E946F008FE39FE1D6
S11304E00197F1F700C000008BB38F708BBB8BB307
S11304F0C295C07FC82BCBBB8FE39FE10197F1F777
S113050000C0000040E063E088E390E00E946F00D8
S11305108FE39FE10197F1F700C00000CF910895A8
S1130520CF93DF93EC0103C00E94340221968881AB
S11305308111FACFDF91CF910895CF93DF93CDB797
S1130540DEB761970FB6F894DEBF0FBECDBF4AE0A9
S1130550BE016F5F7F4F90E00E940C03CE010196B5
S11305600E94900261960FB6F894DEBF0FBECDBF15
S1130570DF91CF91089581E00E94D80108952FEF73
S113058089EF90E0215080409040E1F700C00000E6
S113059041E061E087E390E00E94510041E062E0C5
S11305A087E390E00E94510041E063E087E390E03C
S11305B00E9451008AB3806F8ABB82E00E94D801F6
S11305C088E20E94D8018CE00E94D8010E94BB02FC
S11305D008950E94F2000E94BF022FEF89EF90E07D
S11305E0215080409040E1F700C000000E94F900D3
S11305F08031E1F30E949D022FEF89EF90E02150BA
S113060080409040E1F700C00000F0CFEE0FFF1FE4
S11306100590F491E02D0994BB274A3031F49923D5
S113062022F4BDE2909581959F4F0C941803BB274B
S1130630FB015527AA27880F991FAA1FA41710F09A
S1130640A41B83955051B9F7A05DAA3308F0A95DA6
S1130650A193009779F7B111B1931192CB010C9446
S11306603103DC01FC01672F71917723E1F73297A5
S113067004C07C916D9370836291AE17BF07C8F379
S10906800895F894FFCF79
S9030000FC
